https://explorer.devnet.imola.movementlabs.xyz/

POST
	https://mevm.devnet.imola.movementlabs.xyz/
{"id":"1","jsonrpc":"2.0","method":"debug_getMoveHash","params":["0xf38dd9cb5117976909c9772991af91bfd7adeb3cf74bac8e1ce7cf3d16699779"]}

{"jsonrpc":"2.0","id":"1","result":"0x4ec6cbc9263c179bf568b878c66a69a4c57156152cdf616521abbc9664599ff8"}

GET https://aptos.devnet.imola.movementlabs.xyz/api/v1/transactions/by_hash/0x4ec6cbc9263c179bf568b878c66a69a4c57156152cdf616521abbc9664599ff8

{"version":"101648153","hash":"0x4ec6cbc9263c179bf568b878c66a69a4c57156152cdf616521abbc9664599ff8","state_change_hash":"0x58c8970492170bd2f4b0cd14a950cad1729534f33c927ef29ee47a4725c721b6","event_root_hash":"0xb8d8cf494b52b8fa14d9ab73af27d1c34c356b9f2ddf6d42ea15148b09604f4b","state_checkpoint_hash":null,"gas_used":"451","success":true,"vm_status":"Executed successfully","accumulator_root_hash":"0x5731b1587b38aa394578214bcaac3c3b752828435cbba94d7e647b7e8e6995b0","changes":[{"address":"0x4ab0137be5cb4b8eb6a755e4c16243724bf44dc2","state_key_hash":"0xecb30baeed4528360e467801c30134ded16b9e553865952f25a9f95005035d71","data":{"type":"0x1::evm_storage::AccountStorage","data":{"balance":"2099829438662385592901","code":"0x6080604052600436106101855760003560e01c8063715018a6116100d1578063a9059cbb1161008a578063dd62ed3e11610064578063dd62ed3e14610431578063e034dbaf14610477578063f2fde38b1461048d578063f887ea40146104ad57600080fd5b8063a9059cbb146103de578063c851cc32146103fe578063d0a8bc2c1461041e57600080fd5b8063715018a6146103445780637f2116ff14610359578063842016711461036c5780638456cb59146103825780638da5cb5b1461039757806395d89b41146103c957600080fd5b8063313ce5671161013e578063563a225411610118578063563a2254146102c35780635c975abb146102d6578063651c1f26146102ee57806370a082311461030e57600080fd5b8063313ce5671461027257806331e61c8e1461028e5780633f4ba83a146102ae57600080fd5b806306fdde0314610191578063095ea7b3146101bc57806318160ddd146101ec5780631c5fc4831461020b5780631c6ffa461461022057806323b872dd1461025257600080fd5b3661018c57005b600080fd5b34801561019d57600080fd5b506101a66104d2565b6040516101b39190611144565b60405180910390f35b3480156101c857600080fd5b506101dc6101d73660046111af565b610564565b60405190151581526020016101b3565b3480156101f857600080fd5b506002545b6040519081526020016101b3565b61021e6102193660046111d9565b61057e565b005b34801561022c57600080fd5b50600a5461023d9063ffffffff1681565b60405163ffffffff90911681526020016101b3565b34801561025e57600080fd5b506101dc61026d3660046111f2565b610681565b34801561027e57600080fd5b50604051601281526020016101b3565b34801561029a57600080fd5b5061021e6102a936600461122e565b6106a5565b3480156102ba57600080fd5b5061021e610746565b61021e6102d13660046111af565b610758565b3480156102e257600080fd5b5060075460ff166101dc565b3480156102fa57600080fd5b5061021e610309366004611250565b610853565b34801561031a57600080fd5b506101fd61032936600461122e565b6001600160a01b031660009081526020819052604090205490565b34801561035057600080fd5b5061021e610944565b61021e6103673660046111d9565b610956565b34801561037857600080fd5b506101fd60095481565b34801561038e57600080fd5b5061021e610a78565b3480156103a357600080fd5b506005546001600160a01b03165b6040516001600160a01b0390911681526020016101b3565b3480156103d557600080fd5b506101a6610a88565b3480156103ea57600080fd5b506101dc6103f93660046111af565b610a97565b34801561040a57600080fd5b5061021e61041936600461122e565b610aa5565b61021e61042c3660046111d9565b610ad5565b34801561043d57600080fd5b506101fd61044c366004611250565b6001600160a01b03918216600090815260016020908152604080832093909416825291909152205490565b34801561048357600080fd5b506101fd60085481565b34801561049957600080fd5b5061021e6104a836600461122e565b610c5c565b3480156104b957600080fd5b506007546103b19061010090046001600160a01b031681565b6060600380546104e190611283565b80601f016020809104026020016040519081016040528092919081815260200182805461050d90611283565b801561055a5780601f1061052f5761010080835404028352916020019161055a565b820191906000526020600020905b81548152906001019060200180831161053d57829003601f168201915b5050505050905090565b600033610572818585610c97565b60019150505b92915050565b610586610ca9565b61058e610cd3565b803410156105e35760405162461bcd60e51b815260206004820152601d60248201527f56616c7565206973206c6573732074686174206d696e74416d6f756e7400000060448201526064015b60405180910390fd5b6105ed3382610cf7565b60016008600082825461060091906112bd565b9091555050600854604051600091610620913391859142906020016112de565b6040516020818303038152906040528051906020012090507f41ef4d236db1e189e7ea4d8d3e0335d587275dc0bdbe81234af576126f51fb3933838360405161066b9392919061130d565b60405180910390a15061067e6001600655565b50565b60003361068f858285610d2d565b61069a858585610d92565b506001949350505050565b6106ad610df1565b6000816001600160a01b03164760405160006040518083038185875af1925050503d80600081146106fa576040519150601f19603f3d011682016040523d82523d6000602084013e6106ff565b606091505b50509050806107425760405162461bcd60e51b815260206004820152600f60248201526e151c985b9cd9995c8819985a5b1959608a1b60448201526064016105da565b5050565b61074e610df1565b610756610e1e565b565b610760610ca9565b610768610cd3565b803410156107b85760405162461bcd60e51b815260206004820152601d60248201527f56616c7565206973206c6573732074686174206d696e74416d6f756e7400000060448201526064016105da565b6107c28282610cf7565b6001600860008282546107d591906112bd565b90915550506008546040516000916107f5918591859142906020016112de565b6040516020818303038152906040528051906020012090507f41ef4d236db1e189e7ea4d8d3e0335d587275dc0bdbe81234af576126f51fb398383836040516108409392919061130d565b60405180910390a1506107426001600655565b61085b610df1565b6040516370a0823160e01b815230600482015282906001600160a01b0382169063a9059cbb90849083906370a0823190602401602060405180830381865afa1580156108ab573d6000803e3d6000fd5b505050506040513d601f19601f820116820180604052508101906108cf919061132e565b6040516001600160e01b031960e085901b1681526001600160a01b03909216600483015260248201526044016020604051808303816000875af115801561091a573d6000803e3d6000fd5b505050506040513d601f19601f8201168201806040525081019061093e9190611347565b50505050565b61094c610df1565b6107566000610e70565b61095e610cd3565b610966610ca9565b60075461010090046001600160a01b0316331461098257600080fd5b804710156109d25760405162461bcd60e51b815260206004820152601e60248201527f506f6f6c20646f65736e74206861766520656e6f75676820546f6b656e73000060448201526064016105da565b60075460405160009161010090046001600160a01b03169083908381818185875af1925050503d8060008114610a24576040519150601f19603f3d011682016040523d82523d6000602084013e610a29565b606091505b5050905080610a6d5760405162461bcd60e51b815260206004820152601060248201526f5472616e73666572206661696c65642160801b60448201526064016105da565b5061067e6001600655565b610a80610df1565b610756610ec2565b6060600480546104e190611283565b600033610572818585610d92565b610aad610df1565b600780546001600160a01b0390921661010002610100600160a81b0319909216919091179055565b610add610ca9565b610ae5610cd3565b80471015610b355760405162461bcd60e51b815260206004820152601e60248201527f506f6f6c20646f65736e74206861766520656e6f75676820546f6b656e73000060448201526064016105da565b610b3f3382610eff565b604051600090339083908381818185875af1925050503d8060008114610b81576040519150601f19603f3d011682016040523d82523d6000602084013e610b86565b606091505b5050905080610bca5760405162461bcd60e51b815260206004820152601060248201526f5472616e73666572206661696c65642160801b60448201526064016105da565b600160096000828254610bdd91906112bd565b9091555050600954604051600091610bfd913391869142906020016112de565b6040516020818303038152906040528051906020012090507f199877965aa740c5376d32a742d3826075dcda14fc0a70905bb691f8dc926c6f338483604051610c489392919061130d565b60405180910390a1505061067e6001600655565b610c64610df1565b6001600160a01b038116610c8e57604051631e4fbdf760e01b8152600060048201526024016105da565b61067e81610e70565b610ca48383836001610f35565b505050565b600260065403610ccc57604051633ee5aeb560e01b815260040160405180910390fd5b6002600655565b60075460ff16156107565760405163d93c066560e01b815260040160405180910390fd5b6001600160a01b038216610d215760405163ec442f0560e01b8152600060048201526024016105da565b6107426000838361100a565b6001600160a01b03838116600090815260016020908152604080832093861683529290522054600019811461093e5781811015610d8357828183604051637dc7a0d960e11b81526004016105da9392919061130d565b61093e84848484036000610f35565b6001600160a01b038316610dbc57604051634b637e8f60e11b8152600060048201526024016105da565b6001600160a01b038216610de65760405163ec442f0560e01b8152600060048201526024016105da565b610ca483838361100a565b6005546001600160a01b031633146107565760405163118cdaa760e01b81523360048201526024016105da565b610e26611121565b6007805460ff191690557f5db9ee0a495bf2e6ff9c91a7834c1ba4fdd244a5e8aa4e537bd38aeae4b073aa335b6040516001600160a01b03909116815260200160405180910390a1565b600580546001600160a01b038381166001600160a01b0319831681179093556040519116919082907f8be0079c531659141344cd1fd0a4f28419497f9722a3daafe3b4186f6b6457e090600090a35050565b610eca610cd3565b6007805460ff191660011790557f62e78cea01bee320cd4e420270b5ea74000d11b0c9f74754ebdbfc544b05a258610e533390565b6001600160a01b038216610f2957604051634b637e8f60e11b8152600060048201526024016105da565b6107428260008361100a565b6001600160a01b038416610f5f5760405163e602df0560e01b8152600060048201526024016105da565b6001600160a01b038316610f8957604051634a1406b160e11b8152600060048201526024016105da565b6001600160a01b038085166000908152600160209081526040808320938716835292905220829055801561093e57826001600160a01b0316846001600160a01b03167f8c5be1e5ebec7d5bd14f71427d1e84f3dd0314c0f7b2291e5b200ac8c7c3b92584604051610ffc91815260200190565b60405180910390a350505050565b6001600160a01b03831661103557806002600082825461102a91906112bd565b909155506110949050565b6001600160a01b038316600090815260208190526040902054818110156110755783818360405163391434e360e21b81526004016105da9392919061130d565b6001600160a01b03841660009081526020819052604090209082900390555b6001600160a01b0382166110b0576002805482900390556110cf565b6001600160a01b03821660009081526020819052604090208054820190555b816001600160a01b0316836001600160a01b03167fddf252ad1be2c89b69c2b068fc378daa952ba7f163c4a11628f55a4df523b3ef8360405161111491815260200190565b60405180910390a3505050565b60075460ff1661075657604051638dfc202b60e01b815260040160405180910390fd5b60006020808352835180602085015260005b8181101561117257858101830151858201604001528201611156565b506000604082860101526040601f19601f8301168501019250505092915050565b80356001600160a01b03811681146111aa57600080fd5b919050565b600080604083850312156111c257600080fd5b6111cb83611193565b946020939093013593505050565b6000602082840312156111eb57600080fd5b5035919050565b60008060006060848603121561120757600080fd5b61121084611193565b925061121e60208501611193565b9150604084013590509250925092565b60006020828403121561124057600080fd5b61124982611193565b9392505050565b6000806040838503121561126357600080fd5b61126c83611193565b915061127a60208401611193565b90509250929050565b600181811c9082168061129757607f821691505b6020821081036112b757634e487b7160e01b600052602260045260246000fd5b50919050565b8082018082111561057857634e487b7160e01b600052601160045260246000fd5b60609490941b6bffffffffffffffffffffffff1916845260148401929092526034830152605482015260740190565b6001600160a01b039390931683526020830191909152604082015260600190565b60006020828403121561134057600080fd5b5051919050565b60006020828403121561135957600080fd5b8151801515811461124957600080fdfea2646970667358221220c3f5c33c2c68c8e5af7aa293b6d17cd17795704e2ac333ca0de40a9bb7662fd264736f6c63430008170033","nonce":"1","storage":{"handle":"0x3891463de419c68afd8fc1d7863df7c11f547fae46400090252838b403c86d36"}}},"type":"write_resource"},{"address":"0x4e49a67a690684cefdc8e67cafb617b2512c485a","state_key_hash":"0x2a72631f651f93b18e1fc773d6a6207db708b586f8217ac18f064321d445cfac","data":{"type":"0x1::evm_storage::AccountStorage","data":{"balance":"950814070000000000","code":"0x","nonce":"1","storage":{"handle":"0x674fc8c9749fcf912de788b4684743cc9ad4b7f3c9c652e7ef05a2067a1c9c4"}}},"type":"write_resource"},{"address":"0x892a2b7cf919760e148a0d33c1eb0f44d3b383f8","state_key_hash":"0xf3310bd8c0d32cb0e8c645195afffadb4d23c880bbabb590891834d0f7727241","data":{"type":"0x1::evm_storage::AccountStorage","data":{"balance":"53675753389851392307101","code":"0x","nonce":"10","storage":{"handle":"0x117fbed2f48b337e27cdc9f8aafc8b6220c96c7dbb5f77113fecd07b251b9357"}}},"type":"write_resource"},{"address":"0x670c8a19ee19a48abd4a795237b60960ec642e018c325c2b8421f9ce3fcb0521","state_key_hash":"0x01f54a5eb9706ed219ed08642379ae6565c4506bfd9165aca716548108622f3e","data":{"type":"0x1::coin::CoinStore<0x1::aptos_coin::AptosCoin>","data":{"coin":{"value":"938023370400"},"deposit_events":{"counter":"1","guid":{"id":{"addr":"0x670c8a19ee19a48abd4a795237b60960ec642e018c325c2b8421f9ce3fcb0521","creation_num":"2"}}},"frozen":false,"withdraw_events":{"counter":"0","guid":{"id":{"addr":"0x670c8a19ee19a48abd4a795237b60960ec642e018c325c2b8421f9ce3fcb0521","creation_num":"3"}}}}},"type":"write_resource"},{"address":"0x670c8a19ee19a48abd4a795237b60960ec642e018c325c2b8421f9ce3fcb0521","state_key_hash":"0x10e12edcc83a84cf191b0aff51e406c47506e52879dad7c458ca5aa16993124b","data":{"type":"0x1::account::Account","data":{"authentication_key":"0x670c8a19ee19a48abd4a795237b60960ec642e018c325c2b8421f9ce3fcb0521","coin_register_events":{"counter":"1","guid":{"id":{"addr":"0x670c8a19ee19a48abd4a795237b60960ec642e018c325c2b8421f9ce3fcb0521","creation_num":"0"}}},"guid_creation_num":"4","key_rotation_events":{"counter":"0","guid":{"id":{"addr":"0x670c8a19ee19a48abd4a795237b60960ec642e018c325c2b8421f9ce3fcb0521","creation_num":"1"}}},"rotation_capability_offer":{"for":{"vec":[]}},"sequence_number":"868629","signer_capability_offer":{"for":{"vec":[]}}}},"type":"write_resource"},{"state_key_hash":"0x6e4b28d40f98a106a65163530924c0dcb40c1349d3aa915d108b4d6cfc1ddb19","handle":"0x1b854694ae746cdbd8d44186ca4929b2b337df21d1c74633be19b2710552fdca","key":"0x0619dc29a0aac8fa146714058e8dd6d2d0f3bdf5f6331907bf91f3acd81e6935","value":"0x23a2f5640b268e010100000000000000","data":{"key":"0x619dc29a0aac8fa146714058e8dd6d2d0f3bdf5f6331907bf91f3acd81e6935","key_type":"address","value":"18558812944820707875","value_type":"u128"},"type":"write_table_item"},{"state_key_hash":"0xb8bf493c4cd2af2b3a276147831c0a2a214ec45b1362225e5f1d2d185aa00762","handle":"0x3891463de419c68afd8fc1d7863df7c11f547fae46400090252838b403c86d36","key":"0x0200000000000000000000000000000000000000000000000000000000000000","value":"0x8f11e1654356a299bc0400000000000000000000000000000000000000000000","data":{"key":"2","key_type":"u256","value":"22368524323017478705551","value_type":"u256"},"type":"write_table_item"},{"state_key_hash":"0xe8ea48f8e197c91aa1b37925def9a2b7e906ec01fe9abf6aadb92ba2dc592a6b","handle":"0x3891463de419c68afd8fc1d7863df7c11f547fae46400090252838b403c86d36","key":"0x0600000000000000000000000000000000000000000000000000000000000000","value":"0x0100000000000000000000000000000000000000000000000000000000000000","data":{"key":"6","key_type":"u256","value":"1","value_type":"u256"},"type":"write_table_item"},{"state_key_hash":"0x2a517719d7ae7b74b195feb78c9c39a26d6766a163836cdc5544c2e4b7f995d8","handle":"0x3891463de419c68afd8fc1d7863df7c11f547fae46400090252838b403c86d36","key":"0x0700000000000000000000000000000000000000000000000000000000000000","value":"0x006f4fc28c0c30b97355a70d9e74fcd2bd60959b7e0000000000000000000000","data":{"key":"7","key_type":"u256","value":"185037431111579309383014535125800272721060513672960","value_type":"u256"},"type":"write_table_item"},{"state_key_hash":"0xf22a434b1071265879b3e66094cd9901f38408092ec79d8ec483f74d63695a2d","handle":"0x3891463de419c68afd8fc1d7863df7c11f547fae46400090252838b403c86d36","key":"0x0800000000000000000000000000000000000000000000000000000000000000","value":"0xba840e0000000000000000000000000000000000000000000000000000000000","data":{"key":"8","key_type":"u256","value":"951482","value_type":"u256"},"type":"write_table_item"},{"state_key_hash":"0x730a234098113e8b3d9d4d6e4e86f916da4b4733f57d2646791e3772cf50c8fe","handle":"0x3891463de419c68afd8fc1d7863df7c11f547fae46400090252838b403c86d36","key":"0x4333d6828516085769d29c490bda931e83bb9388245ed8d6ba51690450c2d4aa","value":"0x00004b0e1085ac00000000000000000000000000000000000000000000000000","data":{"key":"77269096932939889238857119028716652177197356342416426729169871275436300186435","key_type":"u256","value":"48560000000000000","value_type":"u256"},"type":"write_table_item"}],"sender":"0x670c8a19ee19a48abd4a795237b60960ec642e018c325c2b8421f9ce3fcb0521","sequence_number":"868628","max_gas_amount":"2000000","gas_unit_price":"100","expiration_timestamp_secs":"1729946874","payload":{"function":"0x1::evm::send_tx","type_arguments":[],"arguments":["0xf892808502540be4008301aef9944ab0137be5cb4b8eb6a755e4c16243724bf44dc287ac85100e4b0000a41c5fc48300000000000000000000000000000000000000000000000000ac85100e4b000082f03ca03042d1c89984afe04437fc9fec97de49ad655f8aec391a8a557e2eeb59bd5dc2a006f15c4cf485e5f6a1a6638685a86b65e838855964c0b9a139501d1848ec5bed"],"type":"entry_function_payload"},"signature":{"public_key":"0xa3decb78015c2021dedbdea85157b90dce1ddd827461ebb3caf086bf874a290e","signature":"0xbb2df14ca426a6860b6a8b64baf06d2e3c28d6e1085b31e3184b984cb6712ef130bd2491a42cb3d06c555fb43bb6feb0a78d7142247457f5d85eef23f582a500","type":"ed25519_signature"},"events":[{"guid":{"creation_number":"0","account_address":"0x0"},"sequence_number":"0","type":"0x1::evm::ExecResultEventV3","data":{"created_address":"0x","exception":"200","extra":"0x","from":"0x4e49a67a690684cefdc8e67cafb617b2512c485a","gas_usage":"62593","logs":[{"contract":"0x0000000000000000000000004ab0137be5cb4b8eb6a755e4c16243724bf44dc2","data":"0x00000000000000000000000000000000000000000000000000ac85100e4b0000","topics":["0xddf252ad1be2c89b69c2b068fc378daa952ba7f163c4a11628f55a4df523b3ef","0x0000000000000000000000000000000000000000000000000000000000000000","0x0000000000000000000000004e49a67a690684cefdc8e67cafb617b2512c485a"]},{"contract":"0x0000000000000000000000004ab0137be5cb4b8eb6a755e4c16243724bf44dc2","data":"0x0000000000000000000000004e49a67a690684cefdc8e67cafb617b2512c485a00000000000000000000000000000000000000000000000000ac85100e4b0000492d0b564c94787a58f0cd2323017d1a953261f33aff8645a312192225a90ae6","topics":["0x41ef4d236db1e189e7ea4d8d3e0335d587275dc0bdbe81234af576126f51fb39"]}],"message":"0x","to":"0x4ab0137be5cb4b8eb6a755e4c16243724bf44dc2","version":1}},{"guid":{"creation_number":"0","account_address":"0x0"},"sequence_number":"0","type":"0x1::transaction_fee::FeeStatement","data":{"execution_gas_units":"9","io_gas_units":"4","storage_fee_octas":"43840","storage_fee_refund_octas":"0","total_charge_gas_units":"451"}}],"timestamp":"1729946784825780","type":"user_transaction"}